8=FIX.4.2|9=45|35=0|49=A|56=B|34=1|52=20240115-09:30:01.000|10=066|8=FIX.4.2|9=45|35=0|49=A|56=B|34=2|52=20240115-09:30:02.000|10=068|8=FIX.4.2|9=45|35=0|49=A|56=B|34=3|52=20240115-09:30:03.000|10=070|8=FIX.4.2|9=45|35=0|49=A|56=B|34=4|52=20240115-09:30:04.000|10=072|8=FIX.4.2|9=45|35=0|49=A|56=B|34=5|52=20240115-09:30:05.000|10=074|8=FIX.4.2|9=99|35=0|49=A|56=B|34=6|52=20240115-09:30:06.000|10=076|8=FIX.4.2|9=45|35=0|49=A|56=B|34=7|52=20240115-09:30:07.000|10=000|XYZ-not-fix-prefix|8=FIX.4.2|9=45|35=0|49=A|56=B|34=9|52=20240115-09:30:09.000|10=082|8=FIX.4.2|9=46|35=0|49=A|56=B|